{
  "_format": "hh-sol-artifact-1",
  "contractName": "SimpleContract",
  "sourceName": "contracts/SimpleContract.sol",
  "abi": [
    {
      "inputs": [
        {
          "internalType": "string",
          "name": "_name",
          "type": "string"
        },
        {
          "internalType": "uint256",
          "name": "_no",
          "type": "uint256"
        }
      ],
      "name": "addPeople",
      "outputs": [],
      "stateMutability": "nonpayable",
      "type": "function"
    },
    {
      "inputs": [
        {
          "internalType": "uint256",
          "name": "_index",
          "type": "uint256"
        }
      ],
      "name": "getPerson",
      "outputs": [
        {
          "components": [
            {
              "internalType": "string",
              "name": "name",
              "type": "string"
            },
            {
              "internalType": "uint256",
              "name": "no",
              "type": "uint256"
            }
          ],
          "internalType": "struct SimpleContract.People",
          "name": "",
          "type": "tuple"
        }
      ],
      "stateMutability": "view",
      "type": "function"
    },
    {
      "inputs": [
        {
          "internalType": "string",
          "name": "_name",
          "type": "string"
        },
        {
          "internalType": "uint256",
          "name": "_no",
          "type": "uint256"
        }
      ],
      "name": "makeMapping",
      "outputs": [],
      "stateMutability": "nonpayable",
      "type": "function"
    },
    {
      "inputs": [
        {
          "internalType": "string",
          "name": "",
          "type": "string"
        }
      ],
      "name": "nameToFavNo",
      "outputs": [
        {
          "internalType": "uint256",
          "name": "",
          "type": "uint256"
        }
      ],
      "stateMutability": "view",
      "type": "function"
    },
    {
      "inputs": [
        {
          "internalType": "uint256",
          "name": "",
          "type": "uint256"
        }
      ],
      "name": "peoples",
      "outputs": [
        {
          "internalType": "string",
          "name": "name",
          "type": "string"
        },
        {
          "internalType": "uint256",
          "name": "no",
          "type": "uint256"
        }
      ],
      "stateMutability": "view",
      "type": "function"
    },
    {
      "inputs": [],
      "name": "retrieve",
      "outputs": [
        {
          "internalType": "uint256",
          "name": "",
          "type": "uint256"
        }
      ],
      "stateMutability": "view",
      "type": "function"
    },
    {
      "inputs": [
        {
          "internalType": "uint256",
          "name": "_no",
          "type": "uint256"
        }
      ],
      "name": "store",
      "outputs": [],
      "stateMutability": "nonpayable",
      "type": "function"
    }
  ],
  "bytecode": "0x608060405234801561001057600080fd5b506109c0806100206000396000f3fe608060405234801561001057600080fd5b506004361061007d5760003560e01c80632e64cec11161005b5780632e64cec1146100ff5780636057361d1461011d578063795fff1d14610139578063d52daa98146101555761007d565b80630db7aa55146100825780631f1094e71461009e578063246982c4146100cf575b600080fd5b61009c6004803603810190610097919061063b565b610185565b005b6100b860048036038101906100b39190610697565b6101ac565b6040516100c692919061075b565b60405180910390f35b6100e960048036038101906100e49190610697565b610268565b6040516100f69190610821565b60405180910390f35b610107610340565b6040516101149190610843565b60405180910390f35b61013760048036038101906101329190610697565b610349565b005b610153600480360381019061014e919061063b565b610353565b005b61016f600480360381019061016a919061085e565b6103c0565b60405161017c9190610843565b60405180910390f35b8060018360405161019691906108e3565b9081526020016040518091039020819055505050565b600281815481106101bc57600080fd5b90600052602060002090600202016000915090508060000180546101df90610929565b80601f016020809104026020016040519081016040528092919081815260200182805461020b90610929565b80156102585780601f1061022d57610100808354040283529160200191610258565b820191906000526020600020905b81548152906001019060200180831161023b57829003601f168201915b5050505050908060010154905082565b6102706103ee565b600282815481106102845761028361095b565b5b90600052602060002090600202016040518060400160405290816000820180546102ad90610929565b80601f01602080910402602001604051908101604052809291908181526020018280546102d990610929565b80156103265780601f106102fb57610100808354040283529160200191610326565b820191906000526020600020905b81548152906001019060200180831161030957829003601f168201915b505050505081526020016001820154815250509050919050565b60008054905090565b8060008190555050565b6002604051806040016040528084815260200183815250908060018154018082558091505060019003906000526020600020906002020160009091909190915060008201518160000190805190602001906103af929190610408565b506020820151816001015550505050565b6001818051602081018201805184825260208301602085012081835280955050505050506000915090505481565b604051806040016040528060608152602001600081525090565b82805461041490610929565b90600052602060002090601f016020900481019282610436576000855561047d565b82601f1061044f57805160ff191683800117855561047d565b8280016001018555821561047d579182015b8281111561047c578251825591602001919060010190610461565b5b50905061048a919061048e565b5090565b5b808211156104a757600081600090555060010161048f565b5090565b6000604051905090565b600080fd5b600080fd5b600080fd5b600080fd5b6000601f19601f8301169050919050565b7f4e487b7100000000000000000000000000000000000000000000000000000000600052604160045260246000fd5b610512826104c9565b810181811067ffffffffffffffff82111715610531576105306104da565b5b80604052505050565b60006105446104ab565b90506105508282610509565b919050565b600067ffffffffffffffff8211156105705761056f6104da565b5b610579826104c9565b9050602081019050919050565b82818337600083830152505050565b60006105a86105a384610555565b61053a565b9050828152602081018484840111156105c4576105c36104c4565b5b6105cf848285610586565b509392505050565b600082601f8301126105ec576105eb6104bf565b5b81356105fc848260208601610595565b91505092915050565b6000819050919050565b61061881610605565b811461062357600080fd5b50565b6000813590506106358161060f565b92915050565b60008060408385031215610652576106516104b5565b5b600083013567ffffffffffffffff8111156106705761066f6104ba565b5b61067c858286016105d7565b925050602061068d85828601610626565b9150509250929050565b6000602082840312156106ad576106ac6104b5565b5b60006106bb84828501610626565b91505092915050565b600081519050919050565b600082825260208201905092915050565b60005b838110156106fe5780820151818401526020810190506106e3565b8381111561070d576000848401525b50505050565b600061071e826106c4565b61072881856106cf565b93506107388185602086016106e0565b610741816104c9565b840191505092915050565b61075581610605565b82525050565b600060408201905081810360008301526107758185610713565b9050610784602083018461074c565b9392505050565b600082825260208201905092915050565b60006107a7826106c4565b6107b1818561078b565b93506107c18185602086016106e0565b6107ca816104c9565b840191505092915050565b6107de81610605565b82525050565b60006040830160008301518482036000860152610801828261079c565b915050602083015161081660208601826107d5565b508091505092915050565b6000602082019050818103600083015261083b81846107e4565b905092915050565b6000602082019050610858600083018461074c565b92915050565b600060208284031215610874576108736104b5565b5b600082013567ffffffffffffffff811115610892576108916104ba565b5b61089e848285016105d7565b91505092915050565b600081905092915050565b60006108bd826106c4565b6108c781856108a7565b93506108d78185602086016106e0565b80840191505092915050565b60006108ef82846108b2565b915081905092915050565b7f4e487b7100000000000000000000000000000000000000000000000000000000600052602260045260246000fd5b6000600282049050600182168061094157607f821691505b60208210811415610955576109546108fa565b5b50919050565b7f4e487b7100000000000000000000000000000000000000000000000000000000600052603260045260246000fdfea2646970667358221220dab1a609a3b7da982260644565ba79c01efc717c1353ca09be67ab0e1e54baf264736f6c63430008080033",
  "linkReferences": {},
  "deployedLinkReferences": {}
}